{
  "contractName": "Application",
  "abi": [
    {
      "anonymous": false,
      "inputs": [
        {
          "indexed": true,
          "internalType": "address",
          "name": "applicant",
          "type": "address"
        },
        {
          "indexed": false,
          "internalType": "string",
          "name": "name",
          "type": "string"
        },
        {
          "indexed": false,
          "internalType": "string",
          "name": "course",
          "type": "string"
        }
      ],
      "name": "ApplicationSubmitted",
      "type": "event"
    },
    {
      "inputs": [
        {
          "internalType": "uint256",
          "name": "",
          "type": "uint256"
        }
      ],
      "name": "applications",
      "outputs": [
        {
          "internalType": "string",
          "name": "name",
          "type": "string"
        },
        {
          "internalType": "string",
          "name": "course",
          "type": "string"
        },
        {
          "internalType": "address",
          "name": "applicant",
          "type": "address"
        }
      ],
      "stateMutability": "view",
      "type": "function"
    },
    {
      "inputs": [
        {
          "internalType": "string",
          "name": "_name",
          "type": "string"
        },
        {
          "internalType": "string",
          "name": "_course",
          "type": "string"
        }
      ],
      "name": "submitApplication",
      "outputs": [],
      "stateMutability": "nonpayable",
      "type": "function"
    },
    {
      "inputs": [],
      "name": "getAllApplications",
      "outputs": [
        {
          "components": [
            {
              "internalType": "string",
              "name": "name",
              "type": "string"
            },
            {
              "internalType": "string",
              "name": "course",
              "type": "string"
            },
            {
              "internalType": "address",
              "name": "applicant",
              "type": "address"
            }
          ],
          "internalType": "struct Application.ApplicationData[]",
          "name": "",
          "type": "tuple[]"
        }
      ],
      "stateMutability": "view",
      "type": "function"
    }
  ],
  "bytecode": "0x608060405234801561001057600080fd5b50610b6f806100206000396000f3fe608060405234801561001057600080fd5b50600436106100415760003560e01c8063501bc55414610046578063d508a6d614610064578063dfefadff14610080575b600080fd5b61004e6100b2565b60405161005b91906107be565b60405180910390f35b61007e60048036038101906100799190610929565b61028b565b005b61009a600480360381019061009591906109d7565b6103be565b6040516100a993929190610a5d565b60405180910390f35b60606000805480602002602001604051908101604052809291908181526020016000905b82821015610282578382906000526020600020906003020160405180606001604052908160008201805461010990610ad1565b80601f016020809104026020016040519081016040528092919081815260200182805461013590610ad1565b80156101825780601f1061015757610100808354040283529160200191610182565b820191906000526020600020905b81548152906001019060200180831161016557829003601f168201915b5050505050815260200160018201805461019b90610ad1565b80601f01602080910402602001604051908101604052809291908181526020018280546101c790610ad1565b80156102145780601f106101e957610100808354040283529160200191610214565b820191906000526020600020905b8154815290600101906020018083116101f757829003601f168201915b505050505081526020016002820160009054906101000a900473ffffffffffffffffffffffffffffffffffffffff1673ffffffffffffffffffffffffffffffffffffffff1673ffffffffffffffffffffffffffffffffffffffff1681525050815260200190600101906100d6565b50505050905090565b600060405180606001604052808481526020018381526020013373ffffffffffffffffffffffffffffffffffffffff1681525090806001815401808255809150506001900390600052602060002090600302016000909190919091506000820151816000019080519060200190610303929190610528565b506020820151816001019080519060200190610320929190610528565b5060408201518160020160006101000a81548173ffffffffffffffffffffffffffffffffffffffff021916908373ffffffffffffffffffffffffffffffffffffffff16021790555050503373ffffffffffffffffffffffffffffffffffffffff167f9464c694585e7ac84af65cebddec7731cd66657e595a56758debdd9ce697a2b883836040516103b2929190610b02565b60405180910390a25050565b600081815481106103ce57600080fd5b90600052602060002090600302016000915090508060000180546103f190610ad1565b80601f016020809104026020016040519081016040528092919081815260200182805461041d90610ad1565b801561046a5780601f1061043f5761010080835404028352916020019161046a565b820191906000526020600020905b81548152906001019060200180831161044d57829003601f168201915b50505050509080600101805461047f90610ad1565b80601f01602080910402602001604051908101604052809291908181526020018280546104ab90610ad1565b80156104f85780601f106104cd576101008083540402835291602001916104f8565b820191906000526020600020905b8154815290600101906020018083116104db57829003601f168201915b5050505050908060020160009054906101000a900473ffffffffffffffffffffffffffffffffffffffff16905083565b82805461053490610ad1565b90600052602060002090601f016020900481019282610556576000855561059d565b82601f1061056f57805160ff191683800117855561059d565b8280016001018555821561059d579182015b8281111561059c578251825591602001919060010190610581565b5b5090506105aa91906105ae565b5090565b5b808211156105c75760008160009055506001016105af565b5090565b600081519050919050565b600082825260208201905092915050565b6000819050602082019050919050565b600081519050919050565b600082825260208201905092915050565b60005b83811015610631578082015181840152602081019050610616565b83811115610640576000848401525b50505050565b6000601f19601f8301169050919050565b6000610662826105f7565b61066c8185610602565b935061067c818560208601610613565b61068581610646565b840191505092915050565b600073ffffffffffffffffffffffffffffffffffffffff82169050919050565b60006106bb82610690565b9050919050565b6106cb816106b0565b82525050565b600060608301600083015184820360008601526106ee8282610657565b915050602083015184820360208601526107088282610657565b915050604083015161071d60408601826106c2565b508091505092915050565b600061073483836106d1565b905092915050565b6000602082019050919050565b6000610754826105cb565b61075e81856105d6565b935083602082028501610770856105e7565b8060005b858110156107ac578484038952815161078d8582610728565b94506107988361073c565b925060208a01995050600181019050610774565b50829750879550505050505092915050565b600060208201905081810360008301526107d88184610749565b905092915050565b6000604051905090565b600080fd5b600080fd5b600080fd5b600080fd5b7f4e487b7100000000000000000000000000000000000000000000000000000000600052604160045260246000fd5b61083682610646565b810181811067ffffffffffffffff82111715610855576108546107fe565b5b80604052505050565b60006108686107e0565b9050610874828261082d565b919050565b600067ffffffffffffffff821115610894576108936107fe565b5b61089d82610646565b9050602081019050919050565b82818337600083830152505050565b60006108cc6108c784610879565b61085e565b9050828152602081018484840111156108e8576108e76107f9565b5b6108f38482856108aa565b509392505050565b600082601f8301126109105761090f6107f4565b5b81356109208482602086016108b9565b91505092915050565b600080604083850312156109405761093f6107ea565b5b600083013567ffffffffffffffff81111561095e5761095d6107ef565b5b61096a858286016108fb565b925050602083013567ffffffffffffffff81111561098b5761098a6107ef565b5b610997858286016108fb565b9150509250929050565b6000819050919050565b6109b4816109a1565b81146109bf57600080fd5b50565b6000813590506109d1816109ab565b92915050565b6000602082840312156109ed576109ec6107ea565b5b60006109fb848285016109c2565b91505092915050565b600082825260208201905092915050565b6000610a20826105f7565b610a2a8185610a04565b9350610a3a818560208601610613565b610a4381610646565b840191505092915050565b610a57816106b0565b82525050565b60006060820190508181036000830152610a778186610a15565b90508181036020830152610a8b8185610a15565b9050610a9a6040830184610a4e565b949350505050565b7f4e487b7100000000000000000000000000000000000000000000000000000000600052602260045260246000fd5b60006002820490506001821680610ae957607f821691505b602082108103610afc57610afb610aa2565b5b50919050565b60006040820190508181036000830152610b1c8185610a15565b90508181036020830152610b308184610a15565b9050939250505056fea2646970667358221220c53e534cd39075f22f5635697b07477852d794b13b51a7b7f4196bf4dee2fea864736f6c634300080d0033",
  "immutableReferences": {},
  "source": "// SPDX-License-Identifier: MIT\r\npragma solidity ^0.8.11;\r\n\r\ncontract Application {\r\n    struct ApplicationData {\r\n        string name;\r\n        string course;\r\n        address applicant;\r\n    }\r\n\r\n    ApplicationData[] public applications;\r\n\r\n    event ApplicationSubmitted(address indexed applicant, string name, string course);\r\n\r\n    // Submit an application\r\n    function submitApplication(string memory _name, string memory _course) public {\r\n        applications.push(ApplicationData({\r\n            name: _name,\r\n            course: _course,\r\n            applicant: msg.sender\r\n        }));\r\n        emit ApplicationSubmitted(msg.sender, _name, _course);\r\n    }\r\n\r\n    // Get all applications\r\n    function getAllApplications() public view returns (ApplicationData[] memory) {\r\n        return applications;\r\n    }\r\n}\r\n",
  "sourcePath": "E:\\Ethix\\admissions-whistleblower-platform\\blockchain\\contracts\\Application.sol",
  "compiler": {
    "name": "solc",
    "version": "0.8.13+commit.abaa5c0e.Emscripten.clang"
  },
  "schemaVersion": "3.4.16",
  "updatedAt": "2024-09-06T10:36:55.815Z",
  "devdoc": {
    "kind": "dev",
    "methods": {},
    "version": 1
  },
  "userdoc": {
    "kind": "user",
    "methods": {},
    "version": 1
  }
}