{
  "contractName": "TransparentAdmissions",
  "abi": [
    {
      "inputs": [
        {
          "internalType": "address",
          "name": "_sharpTokenAddress",
          "type": "address"
        }
      ],
      "stateMutability": "nonpayable",
      "type": "constructor"
    },
    {
      "anonymous": false,
      "inputs": [
        {
          "indexed": true,
          "internalType": "address",
          "name": "applicant",
          "type": "address"
        },
        {
          "indexed": false,
          "internalType": "string",
          "name": "name",
          "type": "string"
        },
        {
          "indexed": false,
          "internalType": "string",
          "name": "course",
          "type": "string"
        }
      ],
      "name": "ApplicationSubmitted",
      "type": "event"
    },
    {
      "anonymous": false,
      "inputs": [
        {
          "indexed": true,
          "internalType": "address",
          "name": "recipient",
          "type": "address"
        },
        {
          "indexed": false,
          "internalType": "uint256",
          "name": "amount",
          "type": "uint256"
        }
      ],
      "name": "SharpTokensRewarded",
      "type": "event"
    },
    {
      "anonymous": false,
      "inputs": [
        {
          "indexed": true,
          "internalType": "address",
          "name": "whistleblower",
          "type": "address"
        },
        {
          "indexed": false,
          "internalType": "string",
          "name": "report",
          "type": "string"
        }
      ],
      "name": "WhistleblowerReportSubmitted",
      "type": "event"
    },
    {
      "inputs": [],
      "name": "admin",
      "outputs": [
        {
          "internalType": "address",
          "name": "",
          "type": "address"
        }
      ],
      "stateMutability": "view",
      "type": "function",
      "constant": true
    },
    {
      "inputs": [
        {
          "internalType": "uint256",
          "name": "",
          "type": "uint256"
        }
      ],
      "name": "applications",
      "outputs": [
        {
          "internalType": "string",
          "name": "name",
          "type": "string"
        },
        {
          "internalType": "string",
          "name": "course",
          "type": "string"
        },
        {
          "internalType": "address",
          "name": "applicant",
          "type": "address"
        }
      ],
      "stateMutability": "view",
      "type": "function",
      "constant": true
    },
    {
      "inputs": [],
      "name": "getAllApplications",
      "outputs": [
        {
          "components": [
            {
              "internalType": "string",
              "name": "name",
              "type": "string"
            },
            {
              "internalType": "string",
              "name": "course",
              "type": "string"
            },
            {
              "internalType": "address",
              "name": "applicant",
              "type": "address"
            }
          ],
          "internalType": "struct Application.ApplicationData[]",
          "name": "",
          "type": "tuple[]"
        }
      ],
      "stateMutability": "view",
      "type": "function",
      "constant": true
    },
    {
      "inputs": [],
      "name": "getAllWhistleblowerReports",
      "outputs": [
        {
          "components": [
            {
              "internalType": "string",
              "name": "report",
              "type": "string"
            },
            {
              "internalType": "address",
              "name": "whistleblower",
              "type": "address"
            }
          ],
          "internalType": "struct Whistleblower.WhistleblowerReport[]",
          "name": "",
          "type": "tuple[]"
        }
      ],
      "stateMutability": "view",
      "type": "function",
      "constant": true
    },
    {
      "inputs": [],
      "name": "sharpToken",
      "outputs": [
        {
          "internalType": "contract SharpToken",
          "name": "",
          "type": "address"
        }
      ],
      "stateMutability": "view",
      "type": "function",
      "constant": true
    },
    {
      "inputs": [
        {
          "internalType": "string",
          "name": "_name",
          "type": "string"
        },
        {
          "internalType": "string",
          "name": "_course",
          "type": "string"
        }
      ],
      "name": "submitApplication",
      "outputs": [],
      "stateMutability": "nonpayable",
      "type": "function"
    },
    {
      "inputs": [
        {
          "internalType": "string",
          "name": "_report",
          "type": "string"
        }
      ],
      "name": "submitWhistleblowerReport",
      "outputs": [],
      "stateMutability": "nonpayable",
      "type": "function"
    },
    {
      "inputs": [
        {
          "internalType": "uint256",
          "name": "",
          "type": "uint256"
        }
      ],
      "name": "whistleblowerReports",
      "outputs": [
        {
          "internalType": "string",
          "name": "report",
          "type": "string"
        },
        {
          "internalType": "address",
          "name": "whistleblower",
          "type": "address"
        }
      ],
      "stateMutability": "view",
      "type": "function",
      "constant": true
    },
    {
      "inputs": [
        {
          "internalType": "address",
          "name": "_recipient",
          "type": "address"
        },
        {
          "internalType": "uint256",
          "name": "_amount",
          "type": "uint256"
        }
      ],
      "name": "rewardSharpTokens",
      "outputs": [],
      "stateMutability": "nonpayable",
      "type": "function"
    }
  ],
  "bytecode": "0x60806040523480156200001157600080fd5b506040516200167f3803806200167f83398181016040528101906200003791906200012a565b80600260006101000a81548173ffffffffffffffffffffffffffffffffffffffff021916908373ffffffffffffffffffffffffffffffffffffffff16021790555033600360006101000a81548173ffffffffffffffffffffffffffffffffffffffff021916908373ffffffffffffffffffffffffffffffffffffffff160217905550506200015c565b600080fd5b600073ffffffffffffffffffffffffffffffffffffffff82169050919050565b6000620000f282620000c5565b9050919050565b6200010481620000e5565b81146200011057600080fd5b50565b6000815190506200012481620000f9565b92915050565b600060208284031215620001435762000142620000c0565b5b6000620001538482850162000113565b91505092915050565b611513806200016c6000396000f3fe608060405234801561001057600080fd5b50600436106100935760003560e01c806396a195a71161006657806396a195a714610121578063c6c9227d1461013d578063d508a6d61461015b578063dfefadff14610177578063f851a440146101a957610093565b806310e9173a146100985780633073eff3146100c9578063501bc554146100e5578063639d001314610103575b600080fd5b6100b260048036038101906100ad9190610c17565b6101c7565b6040516100c0929190610d1e565b60405180910390f35b6100e360048036038101906100de9190610d7a565b6102a3565b005b6100ed610414565b6040516100fa9190610f2c565b60405180910390f35b61010b6105ed565b6040516101189190610fad565b60405180910390f35b61013b600480360381019061013691906110fd565b610613565b005b610145610720565b6040516101529190611245565b60405180910390f35b61017560048036038101906101709190611267565b610867565b005b610191600480360381019061018c9190610c17565b61099a565b6040516101a0939291906112df565b60405180910390f35b6101b1610b04565b6040516101be9190611324565b60405180910390f35b600081815481106101d757600080fd5b90600052602060002090600202016000915090508060000180546101fa9061136e565b80601f01602080910402602001604051908101604052809291908181526020018280546102269061136e565b80156102735780601f1061024857610100808354040283529160200191610273565b820191906000526020600020905b81548152906001019060200180831161025657829003601f168201915b5050505050908060010160009054906101000a900473ffffffffffffffffffffffffffffffffffffffff16905082565b600360009054906101000a900473ffffffffffffffffffffffffffffffffffffffff1673ffffffffffffffffffffffffffffffffffffffff163373ffffffffffffffffffffffffffffffffffffffff1614610333576040517f08c379a000000000000000000000000000000000000000000000000000000000815260040161032a90611411565b60405180910390fd5b600260009054906101000a900473ffffffffffffffffffffffffffffffffffffffff1673ffffffffffffffffffffffffffffffffffffffff166340c10f1983836040518363ffffffff1660e01b8152600401610390929190611440565b600060405180830381600087803b1580156103aa57600080fd5b505af11580156103be573d6000803e3d6000fd5b505050508173ffffffffffffffffffffffffffffffffffffffff167f85aa051bba3da807e57f7ef977232e3891d219428682c2f653da42ead1912312826040516104089190611469565b60405180910390a25050565b60606001805480602002602001604051908101604052809291908181526020016000905b828210156105e4578382906000526020600020906003020160405180606001604052908160008201805461046b9061136e565b80601f01602080910402602001604051908101604052809291908181526020018280546104979061136e565b80156104e45780601f106104b9576101008083540402835291602001916104e4565b820191906000526020600020905b8154815290600101906020018083116104c757829003601f168201915b505050505081526020016001820180546104fd9061136e565b80601f01602080910402602001604051908101604052809291908181526020018280546105299061136e565b80156105765780601f1061054b57610100808354040283529160200191610576565b820191906000526020600020905b81548152906001019060200180831161055957829003601f168201915b505050505081526020016002820160009054906101000a900473ffffffffffffffffffffffffffffffffffffffff1673ffffffffffffffffffffffffffffffffffffffff1673ffffffffffffffffffffffffffffffffffffffff168152505081526020019060010190610438565b50505050905090565b600260009054906101000a900473ffffffffffffffffffffffffffffffffffffffff1681565b600060405180604001604052808381526020013373ffffffffffffffffffffffffffffffffffffffff1681525090806001815401808255809150506001900390600052602060002090600202016000909190919091506000820151816000019080519060200190610685929190610b2a565b5060208201518160010160006101000a81548173ffffffffffffffffffffffffffffffffffffffff021916908373ffffffffffffffffffffffffffffffffffffffff16021790555050503373ffffffffffffffffffffffffffffffffffffffff167f85f8a8b516f7b5ffcdb3a81da1887e249397fa31d7701e6a8b114744c25e03eb826040516107159190611484565b60405180910390a250565b60606000805480602002602001604051908101604052809291908181526020016000905b8282101561085e57838290600052602060002090600202016040518060400160405290816000820180546107779061136e565b80601f01602080910402602001604051908101604052809291908181526020018280546107a39061136e565b80156107f05780601f106107c5576101008083540402835291602001916107f0565b820191906000526020600020905b8154815290600101906020018083116107d357829003601f168201915b505050505081526020016001820160009054906101000a900473ffffffffffffffffffffffffffffffffffffffff1673ffffffffffffffffffffffffffffffffffffffff1673ffffffffffffffffffffffffffffffffffffffff168152505081526020019060010190610744565b50505050905090565b600160405180606001604052808481526020018381526020013373ffffffffffffffffffffffffffffffffffffffff16815250908060018154018082558091505060019003906000526020600020906003020160009091909190915060008201518160000190805190602001906108df929190610b2a565b5060208201518160010190805190602001906108fc929190610b2a565b5060408201518160020160006101000a81548173ffffffffffffffffffffffffffffffffffffffff021916908373ffffffffffffffffffffffffffffffffffffffff16021790555050503373ffffffffffffffffffffffffffffffffffffffff167f9464c694585e7ac84af65cebddec7731cd66657e595a56758debdd9ce697a2b8838360405161098e9291906114a6565b60405180910390a25050565b600181815481106109aa57600080fd5b90600052602060002090600302016000915090508060000180546109cd9061136e565b80601f01602080910402602001604051908101604052809291908181526020018280546109f99061136e565b8015610a465780601f10610a1b57610100808354040283529160200191610a46565b820191906000526020600020905b815481529060010190602001808311610a2957829003601f168201915b505050505090806001018054610a5b9061136e565b80601f0160208091040260200160405190810160405280929190818152602001828054610a879061136e565b8015610ad45780601f10610aa957610100808354040283529160200191610ad4565b820191906000526020600020905b815481529060010190602001808311610ab757829003601f168201915b5050505050908060020160009054906101000a900473ffffffffffffffffffffffffffffffffffffffff16905083565b600360009054906101000a900473ffffffffffffffffffffffffffffffffffffffff1681565b828054610b369061136e565b90600052602060002090601f016020900481019282610b585760008555610b9f565b82601f10610b7157805160ff1916838001178555610b9f565b82800160010185558215610b9f579182015b82811115610b9e578251825591602001919060010190610b83565b5b509050610bac9190610bb0565b5090565b5b80821115610bc9576000816000905550600101610bb1565b5090565b6000604051905090565b600080fd5b600080fd5b6000819050919050565b610bf481610be1565b8114610bff57600080fd5b50565b600081359050610c1181610beb565b92915050565b600060208284031215610c2d57610c2c610bd7565b5b6000610c3b84828501610c02565b91505092915050565b600081519050919050565b600082825260208201905092915050565b60005b83811015610c7e578082015181840152602081019050610c63565b83811115610c8d576000848401525b50505050565b6000601f19601f8301169050919050565b6000610caf82610c44565b610cb98185610c4f565b9350610cc9818560208601610c60565b610cd281610c93565b840191505092915050565b600073ffffffffffffffffffffffffffffffffffffffff82169050919050565b6000610d0882610cdd565b9050919050565b610d1881610cfd565b82525050565b60006040820190508181036000830152610d388185610ca4565b9050610d476020830184610d0f565b9392505050565b610d5781610cfd565b8114610d6257600080fd5b50565b600081359050610d7481610d4e565b92915050565b60008060408385031215610d9157610d90610bd7565b5b6000610d9f85828601610d65565b9250506020610db085828601610c02565b9150509250929050565b600081519050919050565b600082825260208201905092915050565b6000819050602082019050919050565b600082825260208201905092915050565b6000610e0282610c44565b610e0c8185610de6565b9350610e1c818560208601610c60565b610e2581610c93565b840191505092915050565b610e3981610cfd565b82525050565b60006060830160008301518482036000860152610e5c8282610df7565b91505060208301518482036020860152610e768282610df7565b9150506040830151610e8b6040860182610e30565b508091505092915050565b6000610ea28383610e3f565b905092915050565b6000602082019050919050565b6000610ec282610dba565b610ecc8185610dc5565b935083602082028501610ede85610dd6565b8060005b85811015610f1a5784840389528151610efb8582610e96565b9450610f0683610eaa565b925060208a01995050600181019050610ee2565b50829750879550505050505092915050565b60006020820190508181036000830152610f468184610eb7565b905092915050565b6000819050919050565b6000610f73610f6e610f6984610cdd565b610f4e565b610cdd565b9050919050565b6000610f8582610f58565b9050919050565b6000610f9782610f7a565b9050919050565b610fa781610f8c565b82525050565b6000602082019050610fc26000830184610f9e565b92915050565b600080fd5b600080fd5b7f4e487b7100000000000000000000000000000000000000000000000000000000600052604160045260246000fd5b61100a82610c93565b810181811067ffffffffffffffff8211171561102957611028610fd2565b5b80604052505050565b600061103c610bcd565b90506110488282611001565b919050565b600067ffffffffffffffff82111561106857611067610fd2565b5b61107182610c93565b9050602081019050919050565b82818337600083830152505050565b60006110a061109b8461104d565b611032565b9050828152602081018484840111156110bc576110bb610fcd565b5b6110c784828561107e565b509392505050565b600082601f8301126110e4576110e3610fc8565b5b81356110f484826020860161108d565b91505092915050565b60006020828403121561111357611112610bd7565b5b600082013567ffffffffffffffff81111561113157611130610bdc565b5b61113d848285016110cf565b91505092915050565b600081519050919050565b600082825260208201905092915050565b6000819050602082019050919050565b6000604083016000830151848203600086015261118f8282610df7565b91505060208301516111a46020860182610e30565b508091505092915050565b60006111bb8383611172565b905092915050565b6000602082019050919050565b60006111db82611146565b6111e58185611151565b9350836020820285016111f785611162565b8060005b85811015611233578484038952815161121485826111af565b945061121f836111c3565b925060208a019950506001810190506111fb565b50829750879550505050505092915050565b6000602082019050818103600083015261125f81846111d0565b905092915050565b6000806040838503121561127e5761127d610bd7565b5b600083013567ffffffffffffffff81111561129c5761129b610bdc565b5b6112a8858286016110cf565b925050602083013567ffffffffffffffff8111156112c9576112c8610bdc565b5b6112d5858286016110cf565b9150509250929050565b600060608201905081810360008301526112f98186610ca4565b9050818103602083015261130d8185610ca4565b905061131c6040830184610d0f565b949350505050565b60006020820190506113396000830184610d0f565b92915050565b7f4e487b7100000000000000000000000000000000000000000000000000000000600052602260045260246000fd5b6000600282049050600182168061138657607f821691505b6020821081036113995761139861133f565b5b50919050565b7f4f6e6c792061646d696e2063616e20706572666f726d2074686973206163746960008201527f6f6e000000000000000000000000000000000000000000000000000000000000602082015250565b60006113fb602283610c4f565b91506114068261139f565b604082019050919050565b6000602082019050818103600083015261142a816113ee565b9050919050565b61143a81610be1565b82525050565b60006040820190506114556000830185610d0f565b6114626020830184611431565b9392505050565b600060208201905061147e6000830184611431565b92915050565b6000602082019050818103600083015261149e8184610ca4565b905092915050565b600060408201905081810360008301526114c08185610ca4565b905081810360208301526114d48184610ca4565b9050939250505056fea2646970667358221220d8b45878ab318344e7786f7177029642963e6baf2cda8974796e7d31ed2b2e4a64736f6c634300080d0033",
  "immutableReferences": {},
  "source": "// SPDX-License-Identifier: MIT\r\npragma solidity ^0.8.11;\r\n\r\nimport \"./SharpToken.sol\";\r\nimport \"./Whistleblower.sol\";\r\nimport \"./Application.sol\";\r\n\r\ncontract TransparentAdmissions is Whistleblower, Application {\r\n    SharpToken public sharpToken;\r\n    address public admin;\r\n\r\n    event SharpTokensRewarded(address indexed recipient, uint256 amount);\r\n\r\n    constructor(address _sharpTokenAddress) {\r\n        sharpToken = SharpToken(_sharpTokenAddress);\r\n        admin = msg.sender; // Admin is the contract deployer\r\n    }\r\n\r\n    // Modifier to restrict actions to the admin only\r\n    modifier onlyAdmin() {\r\n        require(msg.sender == admin, \"Only admin can perform this action\");\r\n        _;\r\n    }\r\n\r\n    // Reward Sharp Tokens to whistleblowers\r\n    function rewardSharpTokens(address _recipient, uint256 _amount) public onlyAdmin {\r\n        sharpToken.mint(_recipient, _amount);\r\n        emit SharpTokensRewarded(_recipient, _amount);\r\n    }\r\n}\r\n",
  "sourcePath": "E:\\Ethix\\admissions-whistleblower-platform\\blockchain\\contracts\\TranspatrentAdmission.sol",
  "compiler": {
    "name": "solc",
    "version": "0.8.13+commit.abaa5c0e.Emscripten.clang"
  },
  "schemaVersion": "3.4.16",
  "updatedAt": "2024-09-06T10:36:59.744Z",
  "networkType": "ethereum",
  "devdoc": {
    "kind": "dev",
    "methods": {},
    "version": 1
  },
  "userdoc": {
    "kind": "user",
    "methods": {},
    "version": 1
  }
}