{
  "contractName": "Whistleblower",
  "abi": [
    {
      "anonymous": false,
      "inputs": [
        {
          "indexed": true,
          "internalType": "address",
          "name": "whistleblower",
          "type": "address"
        },
        {
          "indexed": false,
          "internalType": "string",
          "name": "report",
          "type": "string"
        }
      ],
      "name": "WhistleblowerReportSubmitted",
      "type": "event"
    },
    {
      "inputs": [
        {
          "internalType": "uint256",
          "name": "",
          "type": "uint256"
        }
      ],
      "name": "whistleblowerReports",
      "outputs": [
        {
          "internalType": "string",
          "name": "report",
          "type": "string"
        },
        {
          "internalType": "address",
          "name": "whistleblower",
          "type": "address"
        }
      ],
      "stateMutability": "view",
      "type": "function"
    },
    {
      "inputs": [
        {
          "internalType": "string",
          "name": "_report",
          "type": "string"
        }
      ],
      "name": "submitWhistleblowerReport",
      "outputs": [],
      "stateMutability": "nonpayable",
      "type": "function"
    },
    {
      "inputs": [],
      "name": "getAllWhistleblowerReports",
      "outputs": [
        {
          "components": [
            {
              "internalType": "string",
              "name": "report",
              "type": "string"
            },
            {
              "internalType": "address",
              "name": "whistleblower",
              "type": "address"
            }
          ],
          "internalType": "struct Whistleblower.WhistleblowerReport[]",
          "name": "",
          "type": "tuple[]"
        }
      ],
      "stateMutability": "view",
      "type": "function"
    }
  ],
  "bytecode": "0x608060405234801561001057600080fd5b506109b5806100206000396000f3fe608060405234801561001057600080fd5b50600436106100415760003560e01c806310e9173a1461004657806396a195a714610077578063c6c9227d14610093575b600080fd5b610060600480360381019061005b91906104ce565b6100b1565b60405161006e9291906105d5565b60405180910390f35b610091600480360381019061008c919061073a565b61018d565b005b61009b61029a565b6040516100a891906108db565b60405180910390f35b600081815481106100c157600080fd5b90600052602060002090600202016000915090508060000180546100e49061092c565b80601f01602080910402602001604051908101604052809291908181526020018280546101109061092c565b801561015d5780601f106101325761010080835404028352916020019161015d565b820191906000526020600020905b81548152906001019060200180831161014057829003601f168201915b5050505050908060010160009054906101000a900473ffffffffffffffffffffffffffffffffffffffff16905082565b600060405180604001604052808381526020013373ffffffffffffffffffffffffffffffffffffffff16815250908060018154018082558091505060019003906000526020600020906002020160009091909190915060008201518160000190805190602001906101ff9291906103e1565b5060208201518160010160006101000a81548173ffffffffffffffffffffffffffffffffffffffff021916908373ffffffffffffffffffffffffffffffffffffffff16021790555050503373ffffffffffffffffffffffffffffffffffffffff167f85f8a8b516f7b5ffcdb3a81da1887e249397fa31d7701e6a8b114744c25e03eb8260405161028f919061095d565b60405180910390a250565b60606000805480602002602001604051908101604052809291908181526020016000905b828210156103d857838290600052602060002090600202016040518060400160405290816000820180546102f19061092c565b80601f016020809104026020016040519081016040528092919081815260200182805461031d9061092c565b801561036a5780601f1061033f5761010080835404028352916020019161036a565b820191906000526020600020905b81548152906001019060200180831161034d57829003601f168201915b505050505081526020016001820160009054906101000a900473ffffffffffffffffffffffffffffffffffffffff1673ffffffffffffffffffffffffffffffffffffffff1673ffffffffffffffffffffffffffffffffffffffff1681525050815260200190600101906102be565b50505050905090565b8280546103ed9061092c565b90600052602060002090601f01602090048101928261040f5760008555610456565b82601f1061042857805160ff1916838001178555610456565b82800160010185558215610456579182015b8281111561045557825182559160200191906001019061043a565b5b5090506104639190610467565b5090565b5b80821115610480576000816000905550600101610468565b5090565b6000604051905090565b600080fd5b600080fd5b6000819050919050565b6104ab81610498565b81146104b657600080fd5b50565b6000813590506104c8816104a2565b92915050565b6000602082840312156104e4576104e361048e565b5b60006104f2848285016104b9565b91505092915050565b600081519050919050565b600082825260208201905092915050565b60005b8381101561053557808201518184015260208101905061051a565b83811115610544576000848401525b50505050565b6000601f19601f8301169050919050565b6000610566826104fb565b6105708185610506565b9350610580818560208601610517565b6105898161054a565b840191505092915050565b600073ffffffffffffffffffffffffffffffffffffffff82169050919050565b60006105bf82610594565b9050919050565b6105cf816105b4565b82525050565b600060408201905081810360008301526105ef818561055b565b90506105fe60208301846105c6565b9392505050565b600080fd5b600080fd5b7f4e487b7100000000000000000000000000000000000000000000000000000000600052604160045260246000fd5b6106478261054a565b810181811067ffffffffffffffff821117156106665761066561060f565b5b80604052505050565b6000610679610484565b9050610685828261063e565b919050565b600067ffffffffffffffff8211156106a5576106a461060f565b5b6106ae8261054a565b9050602081019050919050565b82818337600083830152505050565b60006106dd6106d88461068a565b61066f565b9050828152602081018484840111156106f9576106f861060a565b5b6107048482856106bb565b509392505050565b600082601f83011261072157610720610605565b5b81356107318482602086016106ca565b91505092915050565b6000602082840312156107505761074f61048e565b5b600082013567ffffffffffffffff81111561076e5761076d610493565b5b61077a8482850161070c565b91505092915050565b600081519050919050565b600082825260208201905092915050565b6000819050602082019050919050565b600082825260208201905092915050565b60006107cb826104fb565b6107d581856107af565b93506107e5818560208601610517565b6107ee8161054a565b840191505092915050565b610802816105b4565b82525050565b6000604083016000830151848203600086015261082582826107c0565b915050602083015161083a60208601826107f9565b508091505092915050565b60006108518383610808565b905092915050565b6000602082019050919050565b600061087182610783565b61087b818561078e565b93508360208202850161088d8561079f565b8060005b858110156108c957848403895281516108aa8582610845565b94506108b583610859565b925060208a01995050600181019050610891565b50829750879550505050505092915050565b600060208201905081810360008301526108f58184610866565b905092915050565b7f4e487b7100000000000000000000000000000000000000000000000000000000600052602260045260246000fd5b6000600282049050600182168061094457607f821691505b602082108103610957576109566108fd565b5b50919050565b60006020820190508181036000830152610977818461055b565b90509291505056fea2646970667358221220359fc9bf8dde6a19de566b171ac7a881999d784ebbbd8259a15a1a8158131a1b64736f6c634300080d0033",
  "immutableReferences": {},
  "source": "// SPDX-License-Identifier: MIT\r\npragma solidity ^0.8.11;\r\n\r\ncontract Whistleblower {\r\n    struct WhistleblowerReport {\r\n        string report;\r\n        address whistleblower;\r\n    }\r\n\r\n    WhistleblowerReport[] public whistleblowerReports;\r\n\r\n    event WhistleblowerReportSubmitted(address indexed whistleblower, string report);\r\n\r\n    // Submit a whistleblower report\r\n    function submitWhistleblowerReport(string memory _report) public {\r\n        whistleblowerReports.push(WhistleblowerReport({\r\n            report: _report,\r\n            whistleblower: msg.sender\r\n        }));\r\n        emit WhistleblowerReportSubmitted(msg.sender, _report);\r\n    }\r\n\r\n    // Get all whistleblower reports\r\n    function getAllWhistleblowerReports() public view returns (WhistleblowerReport[] memory) {\r\n        return whistleblowerReports;\r\n    }\r\n}\r\n",
  "sourcePath": "E:\\Ethix\\admissions-whistleblower-platform\\blockchain\\contracts\\Whistleblower.sol",
  "compiler": {
    "name": "solc",
    "version": "0.8.13+commit.abaa5c0e.Emscripten.clang"
  },
  "schemaVersion": "3.4.16",
  "updatedAt": "2024-09-06T10:36:55.832Z",
  "devdoc": {
    "kind": "dev",
    "methods": {},
    "version": 1
  },
  "userdoc": {
    "kind": "user",
    "methods": {},
    "version": 1
  }
}